:020000040000FA
:020000001028C6
:040002000034003492
:020008002F289F
:06000A0082073F340634BA
:100010005B344F3466346D347D3407347F346F3451
:10002000831603138801F0309600F03086008701B4
:1000300004308100031789018312031387018801AB
:10004000F03086006430810006080B100B11A830D8
:100050008B00A101A201A301A401A5012E28A600E5
:10006000030EA7000B1835289C2806080B10452006
:100070002808093C031CC6282208A1002308A20066
:100080002408A3002808A400C628FF30A8000E30CA
:1000900086008A20061E6B28861E6D28061F6F2884
:1000A0000D3086008A20061E7128861E7328061FC2
:1000B00075280B3086008A20061E7728861E792830
:1000C000061F7B28073086008A20861E6928860145
:1000D000080000307D2801307D2802307D28033063
:1000E0007D2804307D2805307D2806307D280730A6
:1000F0007D2808307D2809307D28A8000030860042
:100100008A200608F039F03A031D7E2893200F302C
:10011000860008000130A9006430AA00AA0B8E28CE
:10012000A90B8C2808000130A9006430AA00AA0B92
:100130009728A90B952808000B11643081008701CE
:100140002508003A0319AD282508013A0319B228F9
:100150002508023A0319B728BC2821080520880081
:100160000714C0282208052088008714C028230807
:10017000052088000715C028240805208800871559
:10018000A50A2508043C0319A501C628270E8300EB
:06019000A60E260E090078
:02400E00E12FA0
:02401000FF3F70
:00000001FF
