:020000040000FA
:020000001028C6
:040002000034003492
:020008002A28A4
:06000A0082073F340634BA
:100010005B344F3466346D347D3407347F346F3451
:1000200083160313880186010430810003178901B8
:100030008312031388018601A50164308100A0307A
:100040008B000230A1000030A2000230A300063075
:10005000A4002928A600030EA700643081000B111C
:1000600086012508003A03193E282508013A03199C
:1000700043282508023A031948284D28210805205D
:10008000880006145128220805208800861451286B
:10009000230805208800061551282408052088001B
:1000A0008615A50A2508043C0319A501270E83001F
:0600B000A60E260E090059
:02400E00E12FA0
:02401000FF3F70
:00000001FF
